:100000002EC10000D6C50000FFC5000028C60000B4
:1000100051C600007AC60000A3C60000CCC600008E
:10002000F5C600004CC100004AC1000048C10000F4
:1000300046C1000044C1000042C100000C94AC0A5B
:100040003EC100003CC100003AC1000038C10000C0
:1000500036C1000034C1000032C1000052C70000A8
:100060002EC1000062C4000096C4000028C1000038
:1000700026C1000024C1000022C1000020C10000F0
:100080001EC100001CC100001AC1000018C1000000
:1000900016C1000014C1000012C1000010C1000010
:1000A0000EC100000CC100000AC1000008C1000020
:1000B00006C1000004C1000002C1000000C1000030
:1000C000FEC00000FCC00000FAC00000F8C0000044
:1000D000F6C00000F4C00000F2C00000F0C0000054
:1000E000EEC00000B3057D05850591059E05BF05A1
:1000F000CC055B08600865086F087908F20883087A
:100100008B0893089D08A708B108C008CA08F20820
:10011000D408DE08E80813091609050909090F09BA
:100120004D091A091E09240928092C093209360922
:100130003A094D0940094409480900000A0B02091F
:100140000C0D0E0807030401000000000000000071
:10015000000000000000000000000000000000009F
:10016000000000000000121110000000000000005C
:10017000000000000000000000000000000000007F
:1001800001021020200808102040102040800201A9
:10019000020108040201010204081020408080408E
:1001A000201008040201800402018040201008048D
:1001B000020108040201010204081020408001022B
:1001C00004081020408005050505070508080808F3
:1001D000020202020A0A08080404040401010101DF
:1001E00001010101030303030303030304070707DA
:1001F0000C0C0C0C0C0C0C0C02020202060606067F
:10020000060606060B0B0B0B0B0B0B0B000020005E
:100210002300260029002C002F00320000010000DE
:1002200003010601090100002200250028002B001F
:100230002E003100340002010000050108010B010D
:1002400000002100240027002A002D003000330088
:1002500001010000040107010A01F802FD04112454
:100260001FBECFEFD1E2DEBFCDBF00E00CBF12E07A
:10027000A0E0B2E0E0E9FAE100E00BBF02C00790C5
:100280000D92AC32B107D9F723E0ACE2B2E001C085
:100290001D92A930B207E1F712E0CEE5D2E000E00E
:1002A00006C022970109FE010BBF0E94BD0BCA3593
:1002B000D10780E00807A9F71AD60C94460DA0CE06
:1002C00082E00E94BC09019731F483E00E94BC09DE
:1002D000892BA9F405C083E00E94BC09019779F439
:1002E000609148027091490280914A0290914B02BC
:1002F00020E030E040E85FE30E94D10B0EC0609147
:1003000048027091490280914A0290914B0220E08C
:1003100030E040E85FE30E94D00B609348027093A6
:10032000490280934A0290934B0260914802709177
:10033000490280914A0290914B022091040230912F
:10034000050240910602509107020E94E30C60935F
:100350004402709345028093460290934702609155
:10036000440270914502809146029091470220E03C
:1003700030E040E950E40E94E30C60934002709347
:100380004102809342029093430208958F929F927C
:10039000AF92BF92CF92DF92EF92FF9220914002F4
:1003A00030914102409142025091430260912C02EF
:1003B00070912D0280912E0290912F020E94D00BFD
:1003C0006B017C0160933C0270933D0280933E027E
:1003D00090933F0220E030E04AE754E40E94E30CAF
:1003E0004B015C012091340230913502409136027C
:1003F00050913702C701B6010E94D00B20E030E0D7
:10040000A9010E94E30C9B01AC01C501B4010E944B
:10041000D10B6B017C0120E030E0A9010E94DF0CD0
:1004200020E030E0A90187FD2CC0C701B6010E9481
:10043000350C87FD0FC020E030E04FE753E4C701E3
:10044000B6010E94DF0C181654F450E040E03FE77C
:1004500023E409C050E040E030E020E004C05C2D1F
:100460004D2D3E2D2F2D852F942FA32FB22F80930E
:10047000380290933902A0933A02B0933B0261E0B4
:1004800046C0C701B6010E94DF0C181654F420E0E4
:1004900030E0A901C701B6010E94350C87FD24C0D8
:1004A0000BC020E030E04FE753ECC701B6010E94DB
:1004B000350C87FF0BC01CC020E030E04FE753E451
:1004C000C701B6010E94DF0C181694F020E030E05E
:1004D000A901C701B6010E94DF0C18167CF0F7FADB
:1004E000F094F7F8F0940AC0C12CD12C760106C024
:1004F000C12CD12C8FE7E82E83E4F82EC09238026D
:10050000D0923902E0923A02F0923B0260E0809190
:100510000A02FDD6609138027091390280913A0248
:1005200090913B020E94390C80910802A1D58091E4
:100530003C0290913D02A0913E02B0913F02809317
:10054000340290933502A0933602B0933702809123
:10055000400290914102A0914202B09143028093E7
:10056000300290933102A0933202B0933302FF9095
:10057000EF90DF90CF90BF90AF909F908F900895B5
:1005800060E082E08BD660E083E088D661E0809115
:100590000A0284D661E08091080280D661E08DE095
:1005A0007DD610924D0210924C0241E050E060E680
:1005B00071E080E08ED246EC51E061E070E080E0D6
:1005C00090E05ED768D726E040E052EC61E070E052
:1005D00081E592E04AC180E592E00E942F0B609392
:1005E0002C0270932D0280932E0290932F02089577
:1005F000AF92BF92CF92DF92EF92FF920F931F9331
:100600001F921F921F928FEF8F93A12CB12C650127
:1006100014E6E12EF12C00E010E020E030E0A9012A
:1006200064E170E080E090E01CD470934F0260932E
:100630004E020F900F900F900F901F910F91FF900F
:10064000EF90DF90CF90BF90AF900895FC01818D27
:10065000228D90E0805C9F4F821B91098F739927B8
:100660000895FC01918D828D981731F0828DE80FED
:10067000F11D858D90E008958FEF9FEF0895FC01A7
:10068000918D828D981761F0828DDF01A80FB11DC9
:100690005D968C91928D9F5F9F73928F90E00895ED
:1006A0008FEF9FEF089584EF94E0892B39F080E07D
:1006B00090E0892B19F098D1811125C080E090E05D
:1006C000892B41F080E090E0892B21F00E9400000E
:1006D00081111CC080E090E0892B41F080E090E027
:1006E000892B21F00E940000811113C080E090E06E
:1006F000892BA1F080E090E0892B81F00E9400001E
:1007000081110AC008950E940000D8CF0E94000005
:10071000E1CF0E940000EACF0C9400000895FC0194
:10072000848DDF01A80FB11DA35ABF4F2C91848D7A
:1007300090E001968F739927848FA689B7892C93AF
:10074000A089B1898C9180648C93938D848D98134A
:1007500006C00288F389E02D80818F7D8083089513
:10076000CF93DF93EC01888D8823C1F0EA89FB8960
:10077000808185FD05C0A889B9898C9186FD0EC050
:100780000FB607FCF5CF808185FFF2CFA889B98924
:100790008C9185FFEDCFCE01C2DFE8CFDF91CF9105
:1007A0000895CF92DF92FF920F931F93CF93DF9321
:1007B0001F92CDB7DEB76C0181E0D60158968C93BD
:1007C00058975B969C915B975C968C915C9798137D
:1007D00007C05096ED91FC915197808185FD2DC009
:1007E000F601038D10E00F5F1F4F0F731127F02EDE
:1007F000F601848DF81210C00FB607FCF9CFD601B0
:100800005096ED91FC915197808185FFF1CFC60103
:10081000698385DF6981ECCF838DE80FF11DE35A91
:10082000FF4F6083D6015B960C935B975296ED91D8
:10083000FC915397808180620CC0D6015696ED9151
:10084000FC91579760835096ED91FC915197808170
:100850008064808381E090E00F90DF91CF911F91C1
:100860000F91FF90DF90CF900895BF92CF92DF92CB
:10087000EF92FF92CF93DF93EC016A017B01B22EDE
:10088000E889F98982E08083411581EE5807610586
:10089000710599F060E079E08DE390E0A7019601A1
:1008A0001ED7215031094109510956954795379571
:1008B0002795211580E1380790F0E889F9891082A1
:1008C00060E874E88EE190E0A701960108D7215016
:1008D0003109410951095695479537952795EC857A
:1008E000FD853083EE85FF852083188EEC89FD8998
:1008F000B082EA89FB89808180618083EA89FB89F3
:10090000808188608083EA89FB8980818068808318
:10091000EA89FB8980818F7D8083DF91CF91FF9071
:10092000EF90DF90CF90BF9008951F920F920FB677
:100930000F9211240BB60F922F938F939F93EF93E7
:10094000FF93E0916102F09162028081E091670281
:10095000F091680282FD12C0908180916A028F5FDF
:100960008F7320916B02821751F0E0916A02F0E0E0
:10097000EF5AFD4F958F80936A0201C08081FF91ED
:10098000EF919F918F912F910F900BBE0F900FBE03
:100990000F901F9018951F920F920FB60F9211246F
:1009A0000BB60F922F933F934F935F936F937F9369
:1009B0008F939F93AF93BF93EF93FF9381E592E063
:1009C000AEDEFF91EF91BF91AF919F918F917F919B
:1009D0006F915F914F913F912F910F900BBE0F90B0
:1009E0000FBE0F901F90189581E592E02FDE21E059
:1009F000892B09F420E0822F08951092540210925E
:100A0000530288EE93E0A0E0B0E08093550290930B
:100A10005602A0935702B093580280E292E090935E
:100A200052028093510285EC90E090935E02809395
:100A30005D0284EC90E09093600280935F0280EC12
:100A400090E0909362028093610281EC90E0909339
:100A500064028093630282EC90E09093660280933C
:100A6000650286EC90E09093680280936702109292
:100A70006A0210926B0210926C0210926D0208953D
:100A8000CF92DF92EF92FF920F931F93CF93DF935A
:100A90007C016A01EB0100E010E00C151D0571F00E
:100AA0006991D701ED91FC910190F081E02DC70192
:100AB0001995892B19F00F5F1F4FEFCFC801DF91F8
:100AC000CF911F910F91FF90EF90DF90CF900895FD
:100AD0000895883008F06CC0E82FF0E0EE0FFF1F9B
:100AE000E45FFD4F7183608390E0FC013197E73054
:100AF000F10588F5EE58FF4F30C6809169008C7F74
:100B0000842B80936900E89A089580916900440FCE
:100B1000551F440F551F837F842B80936900E99AEA
:100B200008958091690074E0440F551F7A95E1F7AC
:100B30008F7C842B80936900EA9A089580916900E4
:100B400066E0440F551F6A95E1F78F73842B8093FD
:100B50006900EB9A089580916A008C7F842B8093C2
:100B60006A00EC9A089580916A00440F551F440F63
:100B7000551F837F842B80936A00ED9A089580919E
:100B80006A0024E0440F551F2A95E1F78F7C842BDF
:100B900080936A00EE9A089580916A0096E0440F6F
:100BA000551F9A95E1F78F73842B80936A00EF9A13
:100BB00008951F920F920FB60F9211240BB60F9249
:100BC0002F933F934F935F936F937F938F939F9355
:100BD000AF93BF93EF93FF93E0911002F091110256
:100BE0001995FF91EF91BF91AF919F918F917F9157
:100BF0006F915F914F913F912F910F900BBE0F908E
:100C00000FBE0F901F9018951F920F920FB60F9264
:100C100011240BB60F922F933F934F935F936F93D3
:100C20007F938F939F93AF93BF93EF93FF93E09145
:100C30001202F09113021995FF91EF91BF91AF91BC
:100C40009F918F917F916F915F914F913F912F91E4
:100C50000F900BBE0F900FBE0F901F9018951F9214
:100C60000F920FB60F9211240BB60F922F933F9352
:100C70004F935F936F937F938F939F93AF93BF93A4
:100C8000EF93FF93E0911402F09115021995FF91F3
:100C9000EF91BF91AF919F918F917F916F915F91F4
:100CA0004F913F912F910F900BBE0F900FBE0F9061
:100CB0001F9018951F920F920FB60F9211240BB62A
:100CC0000F922F933F934F935F936F937F938F93E5
:100CD0009F93AF93BF93EF93FF93E0911602F09130
:100CE00017021995FF91EF91BF91AF919F918F914D
:100CF0007F916F915F914F913F912F910F900BBE1C
:100D00000F900FBE0F901F9018951F920F920FB665
:100D10000F9211240BB60F922F933F934F935F9333
:100D20006F937F938F939F93AF93BF93EF93FF93B3
:100D3000E0910C02F0910D021995FF91EF91BF9196
:100D4000AF919F918F917F916F915F914F913F9163
:100D50002F910F900BBE0F900FBE0F901F90189504
:100D60001F920F920FB60F9211240BB60F922F9372
:100D70003F934F935F936F937F938F939F93AF9323
:100D8000BF93EF93FF93E0910E02F0910F0219953C
:100D9000FF91EF91BF91AF919F918F917F916F9153
:100DA0005F914F913F912F910F900BBE0F900FBE0F
:100DB0000F901F9018951F920F920FB60F9211244B
:100DC0000BB60F922F933F934F935F936F937F9345
:100DD0008F939F93AF93BF93EF93FF93E09118028C
:100DE000F09119021995FF91EF91BF91AF919F91E9
:100DF0008F917F916F915F914F913F912F910F90C4
:100E00000BBE0F900FBE0F901F9018951F920F9260
:100E10000FB60F9211240BB60F922F933F934F935F
:100E20005F936F937F938F939F93AF93BF93EF9352
:100E3000FF93E0911A02F0911B021995FF91EF9137
:100E4000BF91AF919F918F917F916F915F914F91E2
:100E50003F912F910F900BBE0F900FBE0F901F90E0
:100E600018954F925F926F927F92AF92BF92CF92FE
:100E7000DF92EF92FF920F931F93CF93DF93CDB743
:100E8000DEB729013A01621B730B840B950B2A898B
:100E90003B894C895D892A193B094C095D092A8BDC
:100EA0003B8B4C8B5D8B9B01AC016A897B898C8968
:100EB0009D8906D4E418F50806091709A8019701C9
:100EC00030D42A0D3B1D4C1D5D1DCA01B901DF91B7
:100ED000CF911F910F91FF90EF90DF90CF90BF9037
:100EE000AF907F906F905F904F90089508955ED07F
:100EF000FDDF46DBC3E5D3E06EDB2097E9F3D3DB10
:100F0000FBCF1F920F920FB60F9211242F933F9396
:100F10008F939F93AF93BF938091EF029091F002D4
:100F2000A091F102B091F2023091EE0223E0230F82
:100F30002D3720F40196A11DB11D05C026E8230F11
:100F40000296A11DB11D2093EE028093EF029093B3
:100F5000F002A093F102B093F2028091F30290911B
:100F6000F402A091F502B091F6020196A11DB11D07
:100F70008093F3029093F402A093F502B093F602EB
:100F8000BF91AF919F918F913F912F910F900FBE85
:100F90000F901F9018958230910538F0880F991F97
:100FA000880F991F05970197F1F70895789484B5F4
:100FB000826084BD84B5816084BD85B5826085BD55
:100FC00085B5816085BDEEE6F0E08081816080833B
:100FD000E1E8F0E01082808182608083808181601E
:100FE0008083E0E8F0E0808181608083E1EBF0E0E5
:100FF000808184608083E0EBF0E080818160808389
:10100000E1E9F0E08081826080838081816080837B
:10101000E0E9F0E0808181608083E1EAF0E08081B6
:1010200082608083808181608083E0EAF0E080815B
:1010300081608083E1E2F1E0808182608083808151
:1010400081608083E0E2F1E0808181608083EAE773
:10105000F0E08081846080838081826080838081F1
:10106000816080838081806880831092C1000895B0
:101070001F93CF93DF93182FEB0161E00FD12097DF
:1010800011F460E004C0CF3FD10531F461E0812F5D
:10109000DF91CF911F913BC1E12FF0E0E65CFE4F65
:1010A000449150E0FA013197E231F10508F09AC01D
:1010B000E758FF4F52C384B5806884BDC7BD97C051
:1010C00084B5806284BDC8BD92C080918000806874
:1010D00080938000D0938900C093880088C080915D
:1010E0008000806280938000D0938B00C0938A0040
:1010F0007EC080918000886080938000D0938D00B6
:10110000C0938C0074C08091B00080688093B00060
:10111000C093B3006CC08091B00080628093B00037
:10112000C093B40064C08091900080688093900068
:10113000D0939900C09398005AC08091900080622B
:1011400080939000D0939B00C0939A0050C08091F0
:101150009000886080939000D0939D00C0939C0085
:1011600046C08091A00080688093A0008091A0007C
:101170008F7B8093A000D093A900C093A80037C0B4
:101180008091A00080628093A000D093AB00C093B8
:10119000AA002DC08091A00088608093A000D09309
:1011A000AD00C093AC0023C0809120018068809383
:1011B0002001D0932901C093280119C080912001FA
:1011C000806280932001D0932B01C0932A010FC02D
:1011D00080912001886080932001D0932D01C093DD
:1011E0002C0105C0C038D1050CF050CF4ACFDF919B
:1011F000CF911F91089590E0FC013197E231F10504
:1012000008F04BC0E557FF4FA8C2809180008F7750
:1012100003C0809180008F7D80938000089580912D
:101220008000877FF9CF84B58F7702C084B58F7D2A
:1012300084BD08958091B0008F7703C08091B00085
:101240008F7D8093B0000895809190008F7707C0C4
:10125000809190008F7D03C080919000877F809364
:10126000900008958091A0008F7707C08091A00022
:101270008F7D03C08091A000877F8093A000089598
:10128000809120018F7707C0809120018F7D03C05E
:1012900080912001877F809320010895CF93DF9371
:1012A00090E0FC01E058FE4F2491FC01EA53FE4F10
:1012B0008491882349F190E0880F991FFC01E05C3C
:1012C000FD4FA591B4918A5D9D4FFC01C591D491CC
:1012D0009FB7611108C0F8948C91209582238C935C
:1012E000888182230AC0623051F4F8948C91322FA5
:1012F000309583238C938881822B888304C0F89453
:101300008C91822B8C939FBFDF91CF9108950F9387
:101310001F93CF93DF931F92CDB7DEB7282F30E016
:10132000F901E65CFE4F8491F901E058FE4F1491FB
:10133000F901EA53FE4F04910023C1F0882319F00C
:10134000698359DF6981E02FF0E0EE0FFF1FEA5D4E
:10135000FD4FA591B4919FB7F8948C91611103C092
:101360001095812301C0812B8C939FBF0F90DF913B
:10137000CF911F910F910895CF93DF93282F30E0E5
:10138000F901E65CFE4F8491F901E058FE4FD491DB
:10139000F901EA53FE4FC491CC2389F081112BDF70
:1013A000EC2FF0E0EE0FFF1FE45FFD4FA591B4912D
:1013B0002C912D2381E090E021F480E002C080E0B8
:1013C00090E0DF91CF910895CF92DF92EF92FF925C
:1013D0000F931F936B017C01CA01B901C114D104A1
:1013E000E104F10421F4C12CD12C7601C394C09204
:1013F0000003D0920103E0920203F09203031093E2
:10140000FF020093FE02209170002E7F2093700057
:101410002091B0002C7F2093B0002091B100277F55
:101420002093B1002091B6002F7D2093B60020912B
:1014300070002D7F209370002091B10024602093D4
:10144000B1002091B1002C7F2093B10020E034E264
:1014500044E75BE4B8D220E030E040E85CE3B3D29C
:1014600008D220E031E0261B370B3093F80220939E
:10147000F7021F910F91FF90EF90DF90CF900895AA
:101480000F931F938A012FE632E143E85AE39CDF72
:101490001F910F9108951092FA021092FB02109280
:1014A000FC021092FD021092F9028091F7029091D5
:1014B000F8028093B200E0E7F0E0808181608083F1
:1014C00008958091FA029091FB02A091FC02B091E4
:1014D000FD020196A11DB11D8093FA029093FB02BB
:1014E000A093FC02B093FD028091FA029091FB025E
:1014F000A091FC02B091FD024091000350910103C4
:10150000609102037091030384179507A607B7073C
:1015100010F18091F90281111EC081E08093F902DF
:101520008091FA029091FB02A091FC02B091FD0221
:10153000841B950BA60BB70B8093FA029093FB02CA
:10154000A093FC02B093FD02E091FE02F091FF0235
:1015500019951092F90208951F920F920FB60F92EB
:1015600011240BB60F922F933F934F935F936F937A
:101570007F938F939F93AF93BF93EF93FF9380914C
:10158000F7029091F8028093B2009BDFFF91EF91F8
:10159000BF91AF919F918F917F916F915F914F918B
:1015A0003F912F910F900BBE0F900FBE0F901F9089
:1015B000189580E090E020E0FB013191BF012327E6
:1015C000019684309105C1F781E0909108032913B9
:1015D00080E00895CF9381E592E038D81816190677
:1015E0006CF481E592E04BD8C82F84E690E0D3DC20
:1015F00091E0CA3A09F090E0892F00C0CF91089598
:101600001F93CF93DF93C0E0D0E081E592E01ED836
:1016100018161906ECF481E592E031D8182F84E60B
:1016200090E0B9DC1B3BA9F0C430D10570F7FE0196
:10163000EC5FFC4F10832196C430D10531F781E572
:1016400092E01DD88093080384E690E0A4DCDDCF0F
:1016500002C084E093E0DF91CF911F910895EF9253
:10166000FF920F931F93CF93DF9300D01F92CDB7BC
:10167000DEB78C01C801AEDF8823E1F3C801C0DF0B
:101680007C01BC01C80195DF882379F0F701DE01F8
:101690001196CE01059621912D93A817B907D9F778
:1016A00069817A818B819C8100C00F900F900F908F
:1016B0000F90DF91CF911F910F91FF90EF900895C0
:1016C000DB018F939F934FD0BF91AF91A29F800D6D
:1016D000911DA39F900DB29F900D11240895A1E23A
:1016E0001A2EAA1BBB1BFD010DC0AA1FBB1FEE1F9C
:1016F000FF1FA217B307E407F50720F0A21BB30BE7
:10170000E40BF50B661F771F881F991F1A9469F762
:1017100060957095809590959B01AC01BD01CF01BE
:101720000895052E97FB16F400940FD057FD05D0B1
:10173000D6DF07FC02D046F408C05095409530959E
:1017400021953F4F4F4F5F4F08959095809570952D
:1017500061957F4F8F4F9F4F0895EE0FFF1F0590AC
:10176000F491E02D19940DD0A59F900DB49F900D8C
:10177000A49F800D911D112408950790F691E02DEE
:101780001994A29FB001B39FC001A39F700D811D4A
:101790001124911DB29F700D811D1124911D08957A
:1017A0005058BB27AA270ED0D0C0C1D030F0C6D029
:1017B00020F031F49F3F11F41EF4B6C00EF4E09512
:1017C000E7FBACC0E92FD2D080F3BA1762077307EA
:1017D0008407950718F071F49EF5EAC00EF4E095C1
:1017E0000B2EBA2FA02D0B01B90190010C01CA01DB
:1017F000A0011124FF27591B99F0593F50F4503E86
:1018000068F11A16F040A22F232F342F4427585F77
:10181000F3CF469537952795A795F0405395C9F78F
:101820007EF41F16BA0B620B730B840BBAF0915047
:10183000A1F0FF0FBB1F661F771F881FC2F70EC0E6
:10184000BA0F621F731F841F48F4879577956795B9
:10185000B795F7959E3F08F0B3CF9395880F08F0A2
:101860009927EE0F97958795089534D008F481E075
:10187000089504D06894B1119CC008957FD088F079
:101880009F5790F0B92F9927B751A0F0D1F0660F6C
:10189000771F881F991F1AF0BA95C9F712C0B13087
:1018A00081F086D0B1E0089583C0672F782F882714
:1018B000B85F39F0B93FCCF3869577956795B395C6
:1018C000D9F73EF490958095709561957F4F8F4F35
:1018D0009F4F0895990F0008550FAA0BE0E8FEEFFF
:1018E00016161706E807F907C0F012161306E407E4
:1018F000F50798F0621B730B840B950B39F40A26DD
:1019000061F0232B242B252B21F408950A2609F4BA
:10191000A140A6958FEF811D811D089597F99F67BE
:1019200080E870E060E008959FEF80EC0895002467
:101930000A941616170618060906089500240A9434
:1019400012161306140605060895092E0394000CBA
:1019500011F4882352F0BB0F40F4BF2B11F460FF49
:1019600004C06F5F7F4F8F4F9F4F089557FD905872
:10197000440F551F59F05F3F71F04795880F97FB53
:10198000991F61F09F3F79F087950895121613060D
:101990001406551FF2CF4695F1DF08C0161617063C
:1019A0001806991FF1CF8695710561050894089571
:1019B000E894BB2766277727CB0197F908958ADF3C
:1019C00008F48FEF08950BD0C0CFB1DF28F0B6DF59
:1019D00018F0952309F0A2CFA7CF1124EACFC6DFD4
:1019E000A0F3959FD1F3950F50E0551F629FF00132
:1019F000729FBB27F00DB11D639FAA27F00DB11D8B
:101A0000AA1F649F6627B00DA11D661F829F222713
:101A1000B00DA11D621F739FB00DA11D621F839F9A
:101A2000A00D611D221F749F3327A00D611D231F70
:101A3000849F600D211D822F762F6A2F11249F57BE
:101A400050408AF0E1F088234AF0EE0FFF1FBB1FE1
:101A5000661F771F881F91505040A9F79E3F510580
:101A600070F05CCFA6CF5F3FECF3983EDCF3869539
:101A700077956795B795F795E7959F5FC1F7FE2B2B
:101A8000880F911D9695879597F90895F894FFCF43
:101A9000010000001742893A050004006805680546
:101AA00068056805680568056805680500000000A8
:0C1AB000D103400526033F033103B003BF
:00000001FF
